{
  "contractName": "DiplomasNFT",
  "abi": [
    {
      "inputs": [
        {
          "internalType": "address",
          "name": "diplomasSignatures",
          "type": "address"
        },
        {
          "internalType": "string",
          "name": "school",
          "type": "string"
        },
        {
          "internalType": "string",
          "name": "year",
          "type": "string"
        }
      ],
      "stateMutability": "nonpayable",
      "type": "constructor"
    },
    {
      "anonymous": false,
      "inputs": [
        {
          "indexed": true,
          "internalType": "address",
          "name": "owner",
          "type": "address"
        },
        {
          "indexed": true,
          "internalType": "address",
          "name": "approved",
          "type": "address"
        },
        {
          "indexed": true,
          "internalType": "uint256",
          "name": "tokenId",
          "type": "uint256"
        }
      ],
      "name": "Approval",
      "type": "event"
    },
    {
      "anonymous": false,
      "inputs": [
        {
          "indexed": true,
          "internalType": "address",
          "name": "owner",
          "type": "address"
        },
        {
          "indexed": true,
          "internalType": "address",
          "name": "operator",
          "type": "address"
        },
        {
          "indexed": false,
          "internalType": "bool",
          "name": "approved",
          "type": "bool"
        }
      ],
      "name": "ApprovalForAll",
      "type": "event"
    },
    {
      "anonymous": false,
      "inputs": [
        {
          "indexed": true,
          "internalType": "address",
          "name": "previousOwner",
          "type": "address"
        },
        {
          "indexed": true,
          "internalType": "address",
          "name": "newOwner",
          "type": "address"
        }
      ],
      "name": "OwnershipTransferred",
      "type": "event"
    },
    {
      "anonymous": false,
      "inputs": [
        {
          "indexed": true,
          "internalType": "address",
          "name": "from",
          "type": "address"
        },
        {
          "indexed": true,
          "internalType": "address",
          "name": "to",
          "type": "address"
        },
        {
          "indexed": true,
          "internalType": "uint256",
          "name": "tokenId",
          "type": "uint256"
        }
      ],
      "name": "Transfer",
      "type": "event"
    },
    {
      "inputs": [
        {
          "internalType": "address",
          "name": "to",
          "type": "address"
        },
        {
          "internalType": "uint256",
          "name": "tokenId",
          "type": "uint256"
        }
      ],
      "name": "approve",
      "outputs": [],
      "stateMutability": "nonpayable",
      "type": "function"
    },
    {
      "inputs": [
        {
          "internalType": "address",
          "name": "owner",
          "type": "address"
        }
      ],
      "name": "balanceOf",
      "outputs": [
        {
          "internalType": "uint256",
          "name": "",
          "type": "uint256"
        }
      ],
      "stateMutability": "view",
      "type": "function"
    },
    {
      "inputs": [
        {
          "internalType": "uint256",
          "name": "tokenId",
          "type": "uint256"
        }
      ],
      "name": "getApproved",
      "outputs": [
        {
          "internalType": "address",
          "name": "",
          "type": "address"
        }
      ],
      "stateMutability": "view",
      "type": "function"
    },
    {
      "inputs": [
        {
          "internalType": "address",
          "name": "owner",
          "type": "address"
        },
        {
          "internalType": "address",
          "name": "operator",
          "type": "address"
        }
      ],
      "name": "isApprovedForAll",
      "outputs": [
        {
          "internalType": "bool",
          "name": "",
          "type": "bool"
        }
      ],
      "stateMutability": "view",
      "type": "function"
    },
    {
      "inputs": [],
      "name": "name",
      "outputs": [
        {
          "internalType": "string",
          "name": "",
          "type": "string"
        }
      ],
      "stateMutability": "view",
      "type": "function"
    },
    {
      "inputs": [],
      "name": "owner",
      "outputs": [
        {
          "internalType": "address",
          "name": "",
          "type": "address"
        }
      ],
      "stateMutability": "view",
      "type": "function"
    },
    {
      "inputs": [
        {
          "internalType": "uint256",
          "name": "tokenId",
          "type": "uint256"
        }
      ],
      "name": "ownerOf",
      "outputs": [
        {
          "internalType": "address",
          "name": "",
          "type": "address"
        }
      ],
      "stateMutability": "view",
      "type": "function"
    },
    {
      "inputs": [],
      "name": "renounceOwnership",
      "outputs": [],
      "stateMutability": "nonpayable",
      "type": "function"
    },
    {
      "inputs": [
        {
          "internalType": "address",
          "name": "from",
          "type": "address"
        },
        {
          "internalType": "address",
          "name": "to",
          "type": "address"
        },
        {
          "internalType": "uint256",
          "name": "tokenId",
          "type": "uint256"
        }
      ],
      "name": "safeTransferFrom",
      "outputs": [],
      "stateMutability": "nonpayable",
      "type": "function"
    },
    {
      "inputs": [
        {
          "internalType": "address",
          "name": "from",
          "type": "address"
        },
        {
          "internalType": "address",
          "name": "to",
          "type": "address"
        },
        {
          "internalType": "uint256",
          "name": "tokenId",
          "type": "uint256"
        },
        {
          "internalType": "bytes",
          "name": "_data",
          "type": "bytes"
        }
      ],
      "name": "safeTransferFrom",
      "outputs": [],
      "stateMutability": "nonpayable",
      "type": "function"
    },
    {
      "inputs": [
        {
          "internalType": "address",
          "name": "operator",
          "type": "address"
        },
        {
          "internalType": "bool",
          "name": "approved",
          "type": "bool"
        }
      ],
      "name": "setApprovalForAll",
      "outputs": [],
      "stateMutability": "nonpayable",
      "type": "function"
    },
    {
      "inputs": [
        {
          "internalType": "bytes4",
          "name": "interfaceId",
          "type": "bytes4"
        }
      ],
      "name": "supportsInterface",
      "outputs": [
        {
          "internalType": "bool",
          "name": "",
          "type": "bool"
        }
      ],
      "stateMutability": "view",
      "type": "function"
    },
    {
      "inputs": [],
      "name": "symbol",
      "outputs": [
        {
          "internalType": "string",
          "name": "",
          "type": "string"
        }
      ],
      "stateMutability": "view",
      "type": "function"
    },
    {
      "inputs": [
        {
          "internalType": "address",
          "name": "from",
          "type": "address"
        },
        {
          "internalType": "address",
          "name": "to",
          "type": "address"
        },
        {
          "internalType": "uint256",
          "name": "tokenId",
          "type": "uint256"
        }
      ],
      "name": "transferFrom",
      "outputs": [],
      "stateMutability": "nonpayable",
      "type": "function"
    },
    {
      "inputs": [
        {
          "internalType": "address",
          "name": "newOwner",
          "type": "address"
        }
      ],
      "name": "transferOwnership",
      "outputs": [],
      "stateMutability": "nonpayable",
      "type": "function"
    },
    {
      "inputs": [],
      "name": "mintAll",
      "outputs": [],
      "stateMutability": "nonpayable",
      "type": "function"
    },
    {
      "inputs": [
        {
          "internalType": "uint256",
          "name": "tokenId",
          "type": "uint256"
        }
      ],
      "name": "tokenURI",
      "outputs": [
        {
          "internalType": "string",
          "name": "",
          "type": "string"
        }
      ],
      "stateMutability": "view",
      "type": "function"
    },
    {
      "inputs": [
        {
          "internalType": "uint256",
          "name": "totalSupply",
          "type": "uint256"
        }
      ],
      "name": "setTotalSupply",
      "outputs": [],
      "stateMutability": "nonpayable",
      "type": "function"
    },
    {
      "inputs": [
        {
          "internalType": "address",
          "name": "student",
          "type": "address"
        }
      ],
      "name": "addStudent",
      "outputs": [],
      "stateMutability": "nonpayable",
      "type": "function"
    },
    {
      "inputs": [
        {
          "internalType": "address",
          "name": "student",
          "type": "address"
        },
        {
          "internalType": "bool",
          "name": "valid",
          "type": "bool"
        }
      ],
      "name": "setStudentValidity",
      "outputs": [],
      "stateMutability": "nonpayable",
      "type": "function"
    },
    {
      "inputs": [
        {
          "internalType": "address",
          "name": "wallet",
          "type": "address"
        }
      ],
      "name": "updateEligibility",
      "outputs": [
        {
          "internalType": "bool",
          "name": "",
          "type": "bool"
        }
      ],
      "stateMutability": "nonpayable",
      "type": "function"
    },
    {
      "inputs": [],
      "name": "getTotalSupply",
      "outputs": [
        {
          "internalType": "uint256",
          "name": "",
          "type": "uint256"
        }
      ],
      "stateMutability": "view",
      "type": "function"
    },
    {
      "inputs": [
        {
          "internalType": "address",
          "name": "student",
          "type": "address"
        }
      ],
      "name": "getStudentValidity",
      "outputs": [
        {
          "internalType": "bool",
          "name": "",
          "type": "bool"
        }
      ],
      "stateMutability": "view",
      "type": "function"
    },
    {
      "inputs": [
        {
          "internalType": "address",
          "name": "student",
          "type": "address"
        }
      ],
      "name": "getStudentMint",
      "outputs": [
        {
          "internalType": "bool",
          "name": "",
          "type": "bool"
        }
      ],
      "stateMutability": "view",
      "type": "function"
    },
    {
      "inputs": [
        {
          "internalType": "address",
          "name": "student",
          "type": "address"
        }
      ],
      "name": "isStudentAdded",
      "outputs": [
        {
          "internalType": "bool",
          "name": "",
          "type": "bool"
        }
      ],
      "stateMutability": "view",
      "type": "function"
    },
    {
      "inputs": [],
      "name": "getStudentCount",
      "outputs": [
        {
          "internalType": "uint256",
          "name": "",
          "type": "uint256"
        }
      ],
      "stateMutability": "view",
      "type": "function"
    },
    {
      "inputs": [],
      "name": "getTotalMinted",
      "outputs": [
        {
          "internalType": "uint256",
          "name": "",
          "type": "uint256"
        }
      ],
      "stateMutability": "view",
      "type": "function"
    },
    {
      "inputs": [],
      "name": "getSignaturesAddress",
      "outputs": [
        {
          "internalType": "address",
          "name": "",
          "type": "address"
        }
      ],
      "stateMutability": "view",
      "type": "function"
    }
  ],
  "bytecode": "0x60806040523480156200001157600080fd5b506040516200258538038062002585833981016040819052620000349162000271565b8151829082906200004d906000906020850190620000fe565b50805162000063906001906020840190620000fe565b505050620000806200007a620000a860201b60201c565b620000ac565b5050600e80546001600160a01b0319166001600160a01b039290921691909117905562000337565b3390565b600780546001600160a01b038381166001600160a01b0319831681179093556040519116919082907f8be0079c531659141344cd1fd0a4f28419497f9722a3daafe3b4186f6b6457e090600090a35050565b8280546200010c90620002fb565b90600052602060002090601f0160209004810192826200013057600085556200017b565b82601f106200014b57805160ff19168380011785556200017b565b828001600101855582156200017b579182015b828111156200017b5782518255916020019190600101906200015e565b50620001899291506200018d565b5090565b5b808211156200018957600081556001016200018e565b634e487b7160e01b600052604160045260246000fd5b600082601f830112620001cc57600080fd5b81516001600160401b0380821115620001e957620001e9620001a4565b604051601f8301601f19908116603f01168101908282118183101715620002145762000214620001a4565b816040528381526020925086838588010111156200023157600080fd5b600091505b8382101562000255578582018301518183018401529082019062000236565b83821115620002675760008385830101525b9695505050505050565b6000806000606084860312156200028757600080fd5b83516001600160a01b03811681146200029f57600080fd5b60208501519093506001600160401b0380821115620002bd57600080fd5b620002cb87838801620001ba565b93506040860151915080821115620002e257600080fd5b50620002f186828701620001ba565b9150509250925092565b600181811c908216806200031057607f821691505b6020821081036200033157634e487b7160e01b600052602260045260246000fd5b50919050565b61223e80620003476000396000f3fe608060405234801561001057600080fd5b50600436106101c45760003560e01c8063715018a6116100f9578063c87b56dd11610097578063f2fde38b11610071578063f2fde38b146103cf578063f57c6999146103e2578063f6d2831e14610422578063f7ea7a3d1461046257600080fd5b8063c87b56dd14610351578063cef5119014610364578063e985e9c51461039357600080fd5b8063a22cb465116100d3578063a22cb46514610310578063b88d4fde14610323578063bd06ea1914610336578063c4e41b221461034957600080fd5b8063715018a6146102ef5780638da5cb5b146102f757806395d89b411461030857600080fd5b806323b872dd11610166578063595882b311610140578063595882b3146102b0578063611554c1146102b85780636352211e146102c957806370a08231146102dc57600080fd5b806323b872dd1461028257806341e0c4071461029557806342842e0e1461029d57600080fd5b8063095ea7b3116101a2578063095ea7b3146102315780630ca1c5c91461024657806315a878a41461025c578063228d77201461026f57600080fd5b806301ffc9a7146101c957806306fdde03146101f1578063081812fc14610206575b600080fd5b6101dc6101d7366004611da0565b610475565b60405190151581526020015b60405180910390f35b6101f9610512565b6040516101e89190611e15565b610219610214366004611e28565b6105a4565b6040516001600160a01b0390911681526020016101e8565b61024461023f366004611e5d565b61063e565b005b61024e61076f565b6040519081526020016101e8565b61024461026a366004611e95565b61077f565b6101dc61027d366004611ecc565b61081b565b610244610290366004611ee7565b6108e6565b61024e61096d565b6102446102ab366004611ee7565b610978565b610244610993565b600e546001600160a01b0316610219565b6102196102d7366004611e28565b610adb565b61024e6102ea366004611ecc565b610b66565b610244610c00565b6007546001600160a01b0316610219565b6101f9610c66565b61024461031e366004611e95565b610c75565b610244610331366004611f39565b610c84565b610244610344366004611ecc565b610d12565b600b5461024e565b6101f961035f366004611e28565b610ed6565b6101dc610372366004611ecc565b6001600160a01b03166000908152600c602052604090206001015460ff1690565b6101dc6103a1366004612015565b6001600160a01b03918216600090815260056020908152604080832093909416825291909152205460ff1690565b6102446103dd366004611ecc565b610ee1565b6101dc6103f0366004611ecc565b6001600160a01b03166000908152600c60209081526040808320548352600d909152902054600160a81b900460ff1690565b6101dc610430366004611ecc565b6001600160a01b03166000908152600c60209081526040808320548352600d909152902054600160a01b900460ff1690565b610244610470366004611e28565b610fc0565b60006001600160e01b031982167f80ac58cd0000000000000000000000000000000000000000000000000000000014806104d857506001600160e01b031982167f5b5e139f00000000000000000000000000000000000000000000000000000000145b8061050c57507f01ffc9a7000000000000000000000000000000000000000000000000000000006001600160e01b03198316145b92915050565b60606000805461052190612048565b80601f016020809104026020016040519081016040528092919081815260200182805461054d90612048565b801561059a5780601f1061056f5761010080835404028352916020019161059a565b820191906000526020600020905b81548152906001019060200180831161057d57829003601f168201915b5050505050905090565b6000818152600260205260408120546001600160a01b03166106225760405162461bcd60e51b815260206004820152602c60248201527f4552433732313a20617070726f76656420717565727920666f72206e6f6e657860448201526b34b9ba32b73a103a37b5b2b760a11b60648201526084015b60405180910390fd5b506000908152600460205260409020546001600160a01b031690565b600061064982610adb565b9050806001600160a01b0316836001600160a01b0316036106d25760405162461bcd60e51b815260206004820152602160248201527f4552433732313a20617070726f76616c20746f2063757272656e74206f776e6560448201527f72000000000000000000000000000000000000000000000000000000000000006064820152608401610619565b336001600160a01b03821614806106ee57506106ee81336103a1565b6107605760405162461bcd60e51b815260206004820152603860248201527f4552433732313a20617070726f76652063616c6c6572206973206e6f74206f7760448201527f6e6572206e6f7220617070726f76656420666f7220616c6c00000000000000006064820152608401610619565b61076a838361101f565b505050565b600061077a600a5490565b905090565b6007546001600160a01b031633146107d95760405162461bcd60e51b815260206004820181905260248201527f4f776e61626c653a2063616c6c6572206973206e6f7420746865206f776e65726044820152606401610619565b6001600160a01b039091166000908152600c60209081526040808320548352600d90915290208054911515600160a01b0260ff60a01b19909216919091179055565b6001600160a01b038181166000818152600c60209081526040808320548352600d909152808220600e5491517ff300cdbc00000000000000000000000000000000000000000000000000000000815260048101949094529193919291169063f300cdbc90602401602060405180830381865afa15801561089f573d6000803e3d6000fd5b505050506040513d601f19601f820116820180604052508101906108c39190612082565b815460ff60a01b1916600160a01b9115158202179182905560ff91041692915050565b6108f0338261109a565b6109625760405162461bcd60e51b815260206004820152603160248201527f4552433732313a207472616e736665722063616c6c6572206973206e6f74206f60448201527f776e6572206e6f7220617070726f7665640000000000000000000000000000006064820152608401610619565b61076a838383611191565b600061077a60085490565b61076a83838360405180602001604052806000815250610c84565b6007546001600160a01b031633146109ed5760405162461bcd60e51b815260206004820181905260248201527f4f776e61626c653a2063616c6c6572206973206e6f7420746865206f776e65726044820152606401610619565b60005b600854811015610ad8576000818152600d6020526040902054600160a81b900460ff1680610a3457506000818152600d6020526040902054600160a01b900460ff16155b610ac6576000610a4360095490565b9050610a53600980546001019055565b6000828152600d6020526040902054610a75906001600160a01b03168261136b565b610a97816040518060600160405280602f81526020016121da602f9139611385565b6000828152600d60205260409020805460ff60a81b1916600160a81b179055610ac4600a80546001019055565b505b80610ad0816120b5565b9150506109f0565b50565b6000818152600260205260408120546001600160a01b03168061050c5760405162461bcd60e51b815260206004820152602960248201527f4552433732313a206f776e657220717565727920666f72206e6f6e657869737460448201527f656e7420746f6b656e00000000000000000000000000000000000000000000006064820152608401610619565b60006001600160a01b038216610be45760405162461bcd60e51b815260206004820152602a60248201527f4552433732313a2062616c616e636520717565727920666f7220746865207a6560448201527f726f2061646472657373000000000000000000000000000000000000000000006064820152608401610619565b506001600160a01b031660009081526003602052604090205490565b6007546001600160a01b03163314610c5a5760405162461bcd60e51b815260206004820181905260248201527f4f776e61626c653a2063616c6c6572206973206e6f7420746865206f776e65726044820152606401610619565b610c64600061142e565b565b60606001805461052190612048565b610c8033838361148d565b5050565b610c8e338361109a565b610d005760405162461bcd60e51b815260206004820152603160248201527f4552433732313a207472616e736665722063616c6c6572206973206e6f74206f60448201527f776e6572206e6f7220617070726f7665640000000000000000000000000000006064820152608401610619565b610d0c8484848461155b565b50505050565b6007546001600160a01b03163314610d6c5760405162461bcd60e51b815260206004820181905260248201527f4f776e61626c653a2063616c6c6572206973206e6f7420746865206f776e65726044820152606401610619565b6001600160a01b0381166000908152600c602052604090206001015460ff1615610dfe5760405162461bcd60e51b815260206004820152602760248201527f4475706c6963617465206164647265737320696e2073747564656e747320636f60448201527f6e7461696e6572000000000000000000000000000000000000000000000000006064820152608401610619565b6000610e0960085490565b604080516060810182526001600160a01b0380861680835260006020808501828152858701838152888452600d835287842096518754925191511515600160a81b0260ff60a81b19921515600160a01b027fffffffffffffffffffffff0000000000000000000000000000000000000000009094169190971617919091171693909317909355835180850185528581526001818401818152928552600c909352939092209251835590519101805491151560ff199092169190911790559050610c80600880546001019055565b606061050c826115d9565b6007546001600160a01b03163314610f3b5760405162461bcd60e51b815260206004820181905260248201527f4f776e61626c653a2063616c6c6572206973206e6f7420746865206f776e65726044820152606401610619565b6001600160a01b038116610fb75760405162461bcd60e51b815260206004820152602660248201527f4f776e61626c653a206e6577206f776e657220697320746865207a65726f206160448201527f64647265737300000000000000000000000000000000000000000000000000006064820152608401610619565b610ad88161142e565b6007546001600160a01b0316331461101a5760405162461bcd60e51b815260206004820181905260248201527f4f776e61626c653a2063616c6c6572206973206e6f7420746865206f776e65726044820152606401610619565b600b55565b6000818152600460205260409020805473ffffffffffffffffffffffffffffffffffffffff19166001600160a01b038416908117909155819061106182610adb565b6001600160a01b03167f8c5be1e5ebec7d5bd14f71427d1e84f3dd0314c0f7b2291e5b200ac8c7c3b92560405160405180910390a45050565b6000818152600260205260408120546001600160a01b03166111135760405162461bcd60e51b815260206004820152602c60248201527f4552433732313a206f70657261746f7220717565727920666f72206e6f6e657860448201526b34b9ba32b73a103a37b5b2b760a11b6064820152608401610619565b600061111e83610adb565b9050806001600160a01b0316846001600160a01b0316148061116557506001600160a01b0380821660009081526005602090815260408083209388168352929052205460ff165b806111895750836001600160a01b031661117e846105a4565b6001600160a01b0316145b949350505050565b826001600160a01b03166111a482610adb565b6001600160a01b0316146112205760405162461bcd60e51b815260206004820152602560248201527f4552433732313a207472616e736665722066726f6d20696e636f72726563742060448201527f6f776e65720000000000000000000000000000000000000000000000000000006064820152608401610619565b6001600160a01b03821661129b5760405162461bcd60e51b8152602060048201526024808201527f4552433732313a207472616e7366657220746f20746865207a65726f2061646460448201527f72657373000000000000000000000000000000000000000000000000000000006064820152608401610619565b6112a660008261101f565b6001600160a01b03831660009081526003602052604081208054600192906112cf9084906120ce565b90915550506001600160a01b03821660009081526003602052604081208054600192906112fd9084906120e5565b9091555050600081815260026020526040808220805473ffffffffffffffffffffffffffffffffffffffff19166001600160a01b0386811691821790925591518493918716917fddf252ad1be2c89b69c2b068fc378daa952ba7f163c4a11628f55a4df523b3ef91a4505050565b610c80828260405180602001604052806000815250611788565b6000828152600260205260409020546001600160a01b031661140f5760405162461bcd60e51b815260206004820152602e60248201527f45524337323155524953746f726167653a2055524920736574206f66206e6f6e60448201527f6578697374656e7420746f6b656e0000000000000000000000000000000000006064820152608401610619565b6000828152600660209081526040909120825161076a92840190611cf1565b600780546001600160a01b0383811673ffffffffffffffffffffffffffffffffffffffff19831681179093556040519116919082907f8be0079c531659141344cd1fd0a4f28419497f9722a3daafe3b4186f6b6457e090600090a35050565b816001600160a01b0316836001600160a01b0316036114ee5760405162461bcd60e51b815260206004820152601960248201527f4552433732313a20617070726f766520746f2063616c6c6572000000000000006044820152606401610619565b6001600160a01b03838116600081815260056020908152604080832094871680845294825291829020805460ff191686151590811790915591519182527f17307eab39ab6107e8899845ad3d59bd9653f200f220920489ca2b5937696c31910160405180910390a3505050565b611566848484611191565b61157284848484611806565b610d0c5760405162461bcd60e51b815260206004820152603260248201527f4552433732313a207472616e7366657220746f206e6f6e20455243373231526560448201527131b2b4bb32b91034b6b83632b6b2b73a32b960711b6064820152608401610619565b6000818152600260205260409020546060906001600160a01b03166116665760405162461bcd60e51b815260206004820152603160248201527f45524337323155524953746f726167653a2055524920717565727920666f722060448201527f6e6f6e6578697374656e7420746f6b656e0000000000000000000000000000006064820152608401610619565b6000828152600660205260408120805461167f90612048565b80601f01602080910402602001604051908101604052809291908181526020018280546116ab90612048565b80156116f85780601f106116cd576101008083540402835291602001916116f8565b820191906000526020600020905b8154815290600101906020018083116116db57829003601f168201915b50505050509050600061173b60408051808201909152601581527f68747470733a2f2f697066732e696f2f697066732f0000000000000000000000602082015290565b9050805160000361174d575092915050565b81511561177f5780826040516020016117679291906120fd565b60405160208183030381529060405292505050919050565b61118984611952565b6117928383611a6d565b61179f6000848484611806565b61076a5760405162461bcd60e51b815260206004820152603260248201527f4552433732313a207472616e7366657220746f206e6f6e20455243373231526560448201527131b2b4bb32b91034b6b83632b6b2b73a32b960711b6064820152608401610619565b60006001600160a01b0384163b1561194757604051630a85bd0160e11b81526001600160a01b0385169063150b7a029061184a90339089908890889060040161212c565b6020604051808303816000875af1925050508015611885575060408051601f3d908101601f1916820190925261188291810190612168565b60015b61192d573d8080156118b3576040519150601f19603f3d011682016040523d82523d6000602084013e6118b8565b606091505b5080516000036119255760405162461bcd60e51b815260206004820152603260248201527f4552433732313a207472616e7366657220746f206e6f6e20455243373231526560448201527131b2b4bb32b91034b6b83632b6b2b73a32b960711b6064820152608401610619565b805181602001fd5b6001600160e01b031916630a85bd0160e11b149050611189565b506001949350505050565b6000818152600260205260409020546060906001600160a01b03166119df5760405162461bcd60e51b815260206004820152602f60248201527f4552433732314d657461646174613a2055524920717565727920666f72206e6f60448201527f6e6578697374656e7420746f6b656e00000000000000000000000000000000006064820152608401610619565b6000611a1b60408051808201909152601581527f68747470733a2f2f697066732e696f2f697066732f0000000000000000000000602082015290565b90506000815111611a3b5760405180602001604052806000815250611a66565b80611a4584611bbc565b604051602001611a569291906120fd565b6040516020818303038152906040525b9392505050565b6001600160a01b038216611ac35760405162461bcd60e51b815260206004820181905260248201527f4552433732313a206d696e7420746f20746865207a65726f20616464726573736044820152606401610619565b6000818152600260205260409020546001600160a01b031615611b285760405162461bcd60e51b815260206004820152601c60248201527f4552433732313a20746f6b656e20616c7265616479206d696e746564000000006044820152606401610619565b6001600160a01b0382166000908152600360205260408120805460019290611b519084906120e5565b9091555050600081815260026020526040808220805473ffffffffffffffffffffffffffffffffffffffff19166001600160a01b03861690811790915590518392907fddf252ad1be2c89b69c2b068fc378daa952ba7f163c4a11628f55a4df523b3ef908290a45050565b606081600003611bff57505060408051808201909152600181527f3000000000000000000000000000000000000000000000000000000000000000602082015290565b8160005b8115611c295780611c13816120b5565b9150611c229050600a8361219b565b9150611c03565b60008167ffffffffffffffff811115611c4457611c44611f23565b6040519080825280601f01601f191660200182016040528015611c6e576020820181803683370190505b5090505b841561118957611c836001836120ce565b9150611c90600a866121af565b611c9b9060306120e5565b60f81b818381518110611cb057611cb06121c3565b60200101907effffffffffffffffffffffffffffffffffffffffffffffffffffffffffffff1916908160001a905350611cea600a8661219b565b9450611c72565b828054611cfd90612048565b90600052602060002090601f016020900481019282611d1f5760008555611d65565b82601f10611d3857805160ff1916838001178555611d65565b82800160010185558215611d65579182015b82811115611d65578251825591602001919060010190611d4a565b50611d71929150611d75565b5090565b5b80821115611d715760008155600101611d76565b6001600160e01b031981168114610ad857600080fd5b600060208284031215611db257600080fd5b8135611a6681611d8a565b60005b83811015611dd8578181015183820152602001611dc0565b83811115610d0c5750506000910152565b60008151808452611e01816020860160208601611dbd565b601f01601f19169290920160200192915050565b602081526000611a666020830184611de9565b600060208284031215611e3a57600080fd5b5035919050565b80356001600160a01b0381168114611e5857600080fd5b919050565b60008060408385031215611e7057600080fd5b611e7983611e41565b946020939093013593505050565b8015158114610ad857600080fd5b60008060408385031215611ea857600080fd5b611eb183611e41565b91506020830135611ec181611e87565b809150509250929050565b600060208284031215611ede57600080fd5b611a6682611e41565b600080600060608486031215611efc57600080fd5b611f0584611e41565b9250611f1360208501611e41565b9150604084013590509250925092565b634e487b7160e01b600052604160045260246000fd5b60008060008060808587031215611f4f57600080fd5b611f5885611e41565b9350611f6660208601611e41565b925060408501359150606085013567ffffffffffffffff80821115611f8a57600080fd5b818701915087601f830112611f9e57600080fd5b813581811115611fb057611fb0611f23565b604051601f8201601f19908116603f01168101908382118183101715611fd857611fd8611f23565b816040528281528a6020848701011115611ff157600080fd5b82602086016020830137600060208483010152809550505050505092959194509250565b6000806040838503121561202857600080fd5b61203183611e41565b915061203f60208401611e41565b90509250929050565b600181811c9082168061205c57607f821691505b60208210810361207c57634e487b7160e01b600052602260045260246000fd5b50919050565b60006020828403121561209457600080fd5b8151611a6681611e87565b634e487b7160e01b600052601160045260246000fd5b6000600182016120c7576120c761209f565b5060010190565b6000828210156120e0576120e061209f565b500390565b600082198211156120f8576120f861209f565b500190565b6000835161210f818460208801611dbd565b835190830190612123818360208801611dbd565b01949350505050565b60006001600160a01b0380871683528086166020840152508360408301526080606083015261215e6080830184611de9565b9695505050505050565b60006020828403121561217a57600080fd5b8151611a6681611d8a565b634e487b7160e01b600052601260045260246000fd5b6000826121aa576121aa612185565b500490565b6000826121be576121be612185565b500690565b634e487b7160e01b600052603260045260246000fdfe516d5250515654575953747258696e34703557744c6f68347074645634726e38666168676e5146446337645665752fa26469706673582212205064ff4a4b132b18d055509446afcb873713832b1cd4bfeee2592c742dc437dd64736f6c634300080e0033",
  "immutableReferences": {},
  "source": "// SPDX-License-Identifier: MIT\npragma solidity >=0.4.22 <0.9.0;\n\nimport \"../node_modules/@openzeppelin/contracts/token/ERC721/ERC721.sol\";\nimport \"../node_modules/@openzeppelin/contracts/token/ERC721/extensions/ERC721URIStorage.sol\";\nimport \"../node_modules/@openzeppelin/contracts/access/Ownable.sol\";\nimport \"../node_modules/@openzeppelin/contracts/utils/Counters.sol\";\nimport \"../node_modules/@openzeppelin/contracts/utils/Strings.sol\";\n\n//import \"hardhat/console.sol\";\n\nabstract contract IDiplomasSignatures {\n    function isCompletelySigned(address wallet)\n        public\n        view\n        virtual\n        returns (bool);\n}\n\ncontract DiplomasNFT is ERC721, ERC721URIStorage, Ownable {\n    using Counters for Counters.Counter;\n\n    Counters.Counter private _currentStudentId;\n    Counters.Counter private _tokenIdCounter;\n    Counters.Counter private _totalMinted;\n\n    struct Student {\n        address _address;\n        bool _eligible;\n        bool _minted;\n    }\n\n    struct CheckId {\n        uint256 _id;\n        bool _isPresent;\n    }\n\n    uint256 _totalSupply; // number of students in the promo, determines\n\n    mapping(address => CheckId) _studentsIds; // Maps student address to their id\n    mapping(uint256 => Student) _students; // Maps id to a student struct\n\n    IDiplomasSignatures private _signatures; // Interface for the DiplomasSignatures contract\n\n    constructor(\n        address diplomasSignatures,\n        string memory school,\n        string memory year\n    ) ERC721(school, year) {\n        _signatures = IDiplomasSignatures(diplomasSignatures);\n    }\n\n    function _baseURI() internal pure override returns (string memory) {\n        return \"https://ipfs.io/ipfs/\";\n    }\n\n    function mintAll() public onlyOwner {\n        for (uint256 i = 0; i < _currentStudentId.current(); i++) {\n            if (_students[i]._minted || !_students[i]._eligible) continue;\n            uint256 tokenId = _tokenIdCounter.current();\n            _tokenIdCounter.increment();\n            _safeMint(_students[i]._address, tokenId);\n            _setTokenURI(\n                tokenId,\n                \"QmRPQVTWYStrXin4p5WtLoh4ptdV4rn8fahgnQFDc7dVeu/\"\n            ); // TODO: change this\n            _students[i]._minted = true;\n            _totalMinted.increment();\n        }\n    }\n\n    function _burn(uint256 tokenId)\n        internal\n        override(ERC721, ERC721URIStorage)\n    {\n        super._burn(tokenId);\n    }\n\n    function tokenURI(uint256 tokenId)\n        public\n        view\n        override(ERC721, ERC721URIStorage)\n        returns (string memory)\n    {\n        return super.tokenURI(tokenId);\n    }\n\n    function setTotalSupply(uint256 totalSupply) public onlyOwner {\n        _totalSupply = totalSupply;\n    }\n\n    function addStudent(address student) public onlyOwner {\n        require(\n            !_studentsIds[student]._isPresent,\n            \"Duplicate address in students container\"\n        );\n\n        uint256 tokenId = _currentStudentId.current();\n        _students[tokenId] = Student(student, false, false);\n        _studentsIds[student] = CheckId(tokenId, true);\n        _currentStudentId.increment();\n    }\n\n    function setStudentValidity(address student, bool valid) public onlyOwner {\n        _students[_studentsIds[student]._id]._eligible = valid;\n    }\n\n    function updateEligibility(address wallet) public returns (bool) {\n        Student storage student = _students[_studentsIds[wallet]._id];\n        student._eligible = _signatures.isCompletelySigned(wallet);\n        return student._eligible;\n    }\n\n    // Getters\n\n    function getTotalSupply() public view returns (uint256) {\n        return _totalSupply;\n    }\n\n    function getStudentValidity(address student) public view returns (bool) {\n        return _students[_studentsIds[student]._id]._eligible;\n    }\n\n    function getStudentMint(address student) public view returns (bool) {\n        return _students[_studentsIds[student]._id]._minted;\n    }\n\n    function isStudentAdded(address student) public view returns (bool) {\n        return _studentsIds[student]._isPresent;\n    }\n\n    function getStudentCount() public view returns (uint256) {\n        return _currentStudentId.current();\n    }\n\n    function getTotalMinted() public view returns (uint256) {\n        return _totalMinted.current();\n    }\n\n    function getSignaturesAddress() public view returns (address) {\n        return address(_signatures);\n    }\n}\n",
  "sourcePath": "/Users/draze/Desktop/LaCity/nft-diplomas/smart-contracts/contracts/DiplomasNFT.sol",
  "compiler": {
    "name": "solc",
    "version": "0.8.14+commit.80d49f37.Emscripten.clang"
  },
  "schemaVersion": "3.4.7",
  "updatedAt": "2022-06-03T16:23:52.569Z",
  "devdoc": {
    "kind": "dev",
    "methods": {
      "approve(address,uint256)": {
        "details": "See {IERC721-approve}."
      },
      "balanceOf(address)": {
        "details": "See {IERC721-balanceOf}."
      },
      "getApproved(uint256)": {
        "details": "See {IERC721-getApproved}."
      },
      "isApprovedForAll(address,address)": {
        "details": "See {IERC721-isApprovedForAll}."
      },
      "name()": {
        "details": "See {IERC721Metadata-name}."
      },
      "owner()": {
        "details": "Returns the address of the current owner."
      },
      "ownerOf(uint256)": {
        "details": "See {IERC721-ownerOf}."
      },
      "renounceOwnership()": {
        "details": "Leaves the contract without owner. It will not be possible to call `onlyOwner` functions anymore. Can only be called by the current owner. NOTE: Renouncing ownership will leave the contract without an owner, thereby removing any functionality that is only available to the owner."
      },
      "safeTransferFrom(address,address,uint256)": {
        "details": "See {IERC721-safeTransferFrom}."
      },
      "safeTransferFrom(address,address,uint256,bytes)": {
        "details": "See {IERC721-safeTransferFrom}."
      },
      "setApprovalForAll(address,bool)": {
        "details": "See {IERC721-setApprovalForAll}."
      },
      "supportsInterface(bytes4)": {
        "details": "See {IERC165-supportsInterface}."
      },
      "symbol()": {
        "details": "See {IERC721Metadata-symbol}."
      },
      "transferFrom(address,address,uint256)": {
        "details": "See {IERC721-transferFrom}."
      },
      "transferOwnership(address)": {
        "details": "Transfers ownership of the contract to a new account (`newOwner`). Can only be called by the current owner."
      }
    },
    "version": 1
  },
  "userdoc": {
    "kind": "user",
    "methods": {},
    "version": 1
  }
}