{
  "contractName": "DiplomasSignatures",
  "abi": [
    {
      "inputs": [
        {
          "internalType": "uint256",
          "name": "layers",
          "type": "uint256"
        },
        {
          "internalType": "address[][]",
          "name": "addresses",
          "type": "address[][]"
        }
      ],
      "stateMutability": "nonpayable",
      "type": "constructor"
    },
    {
      "anonymous": false,
      "inputs": [
        {
          "indexed": false,
          "internalType": "address",
          "name": "wallet",
          "type": "address"
        }
      ],
      "name": "CompletelySigned",
      "type": "event"
    },
    {
      "anonymous": false,
      "inputs": [
        {
          "indexed": false,
          "internalType": "address",
          "name": "waller",
          "type": "address"
        },
        {
          "indexed": false,
          "internalType": "uint256",
          "name": "layer",
          "type": "uint256"
        }
      ],
      "name": "Signed",
      "type": "event"
    },
    {
      "inputs": [],
      "name": "getAddresses",
      "outputs": [
        {
          "internalType": "address[][]",
          "name": "",
          "type": "address[][]"
        }
      ],
      "stateMutability": "view",
      "type": "function"
    },
    {
      "inputs": [],
      "name": "getNumberOfLayers",
      "outputs": [
        {
          "internalType": "uint256",
          "name": "",
          "type": "uint256"
        }
      ],
      "stateMutability": "view",
      "type": "function"
    },
    {
      "inputs": [
        {
          "internalType": "uint256",
          "name": "layer",
          "type": "uint256"
        }
      ],
      "name": "getAddressesByLayer",
      "outputs": [
        {
          "internalType": "address[]",
          "name": "",
          "type": "address[]"
        }
      ],
      "stateMutability": "view",
      "type": "function"
    },
    {
      "inputs": [
        {
          "internalType": "uint256",
          "name": "layer",
          "type": "uint256"
        },
        {
          "internalType": "uint256",
          "name": "index",
          "type": "uint256"
        },
        {
          "internalType": "address",
          "name": "wallet",
          "type": "address"
        }
      ],
      "name": "getSignedStatus",
      "outputs": [
        {
          "internalType": "bool",
          "name": "",
          "type": "bool"
        }
      ],
      "stateMutability": "view",
      "type": "function"
    },
    {
      "inputs": [
        {
          "internalType": "uint256",
          "name": "layer",
          "type": "uint256"
        },
        {
          "internalType": "uint256",
          "name": "index",
          "type": "uint256"
        }
      ],
      "name": "getAddressOfSigner",
      "outputs": [
        {
          "internalType": "address",
          "name": "",
          "type": "address"
        }
      ],
      "stateMutability": "view",
      "type": "function"
    },
    {
      "inputs": [
        {
          "internalType": "uint256",
          "name": "layer",
          "type": "uint256"
        }
      ],
      "name": "getSignerNumber",
      "outputs": [
        {
          "internalType": "uint256",
          "name": "",
          "type": "uint256"
        }
      ],
      "stateMutability": "view",
      "type": "function"
    },
    {
      "inputs": [
        {
          "internalType": "uint256",
          "name": "layer",
          "type": "uint256"
        },
        {
          "internalType": "address",
          "name": "wallet",
          "type": "address"
        }
      ],
      "name": "isSigned",
      "outputs": [
        {
          "internalType": "bool",
          "name": "",
          "type": "bool"
        }
      ],
      "stateMutability": "view",
      "type": "function"
    },
    {
      "inputs": [
        {
          "internalType": "address",
          "name": "signer",
          "type": "address"
        }
      ],
      "name": "isSigner",
      "outputs": [
        {
          "internalType": "bool",
          "name": "",
          "type": "bool"
        },
        {
          "internalType": "uint256",
          "name": "",
          "type": "uint256"
        },
        {
          "internalType": "uint256",
          "name": "",
          "type": "uint256"
        }
      ],
      "stateMutability": "view",
      "type": "function"
    },
    {
      "inputs": [
        {
          "internalType": "address",
          "name": "signer",
          "type": "address"
        },
        {
          "internalType": "uint256",
          "name": "layer",
          "type": "uint256"
        },
        {
          "internalType": "address",
          "name": "wallet",
          "type": "address"
        }
      ],
      "name": "hasSigned",
      "outputs": [
        {
          "internalType": "bool",
          "name": "",
          "type": "bool"
        }
      ],
      "stateMutability": "view",
      "type": "function"
    },
    {
      "inputs": [
        {
          "internalType": "address",
          "name": "wallet",
          "type": "address"
        }
      ],
      "name": "initSignature",
      "outputs": [],
      "stateMutability": "nonpayable",
      "type": "function"
    },
    {
      "inputs": [
        {
          "internalType": "address",
          "name": "wallet",
          "type": "address"
        },
        {
          "internalType": "uint256",
          "name": "layer",
          "type": "uint256"
        }
      ],
      "name": "sign",
      "outputs": [],
      "stateMutability": "nonpayable",
      "type": "function"
    },
    {
      "inputs": [
        {
          "internalType": "address",
          "name": "wallet",
          "type": "address"
        }
      ],
      "name": "getStatus",
      "outputs": [
        {
          "internalType": "bool[][]",
          "name": "",
          "type": "bool[][]"
        }
      ],
      "stateMutability": "view",
      "type": "function"
    },
    {
      "inputs": [
        {
          "internalType": "address",
          "name": "wallet",
          "type": "address"
        },
        {
          "internalType": "uint256",
          "name": "layer",
          "type": "uint256"
        }
      ],
      "name": "getLayerStatus",
      "outputs": [
        {
          "internalType": "bool[]",
          "name": "",
          "type": "bool[]"
        }
      ],
      "stateMutability": "view",
      "type": "function"
    },
    {
      "inputs": [
        {
          "internalType": "address",
          "name": "wallet",
          "type": "address"
        }
      ],
      "name": "isCompletelySigned",
      "outputs": [
        {
          "internalType": "bool",
          "name": "",
          "type": "bool"
        }
      ],
      "stateMutability": "view",
      "type": "function"
    }
  ],
  "bytecode": "0x60806040526002805460ff191690553480156200001b57600080fd5b5060405162001915380380620019158339810160408190526200003e91620003d7565b816001600160401b0381111562000059576200005962000368565b6040519080825280602002602001820160405280156200008e57816020015b6060815260200190600190039081620000785790505b508051620000a59160009160209091019062000243565b50600182905560005b828110156200023a57818181518110620000cc57620000cc62000519565b6020026020010151516001600160401b03811115620000ef57620000ef62000368565b60405190808252806020026020018201604052801562000119578160200160208202803683370190505b506000828154811062000130576200013062000519565b9060005260206000200190805190602001906200014f929190620002a7565b5060005b82828151811062000168576200016862000519565b60200260200101515181101562000224578282815181106200018e576200018e62000519565b60200260200101518181518110620001aa57620001aa62000519565b602002602001015160008381548110620001c857620001c862000519565b906000526020600020018281548110620001e657620001e662000519565b600091825260209091200180546001600160a01b0319166001600160a01b0392909216919091179055806200021b816200052f565b91505062000153565b508062000231816200052f565b915050620000ae565b50505062000557565b82805482825590600052602060002090810192821562000295579160200282015b8281111562000295578251805162000284918491602090910190620002a7565b509160200191906001019062000264565b50620002a39291506200030d565b5090565b828054828255906000526020600020908101928215620002ff579160200282015b82811115620002ff57825182546001600160a01b0319166001600160a01b03909116178255602090920191600190910190620002c8565b50620002a39291506200032e565b80821115620002a357600062000324828262000345565b506001016200030d565b5b80821115620002a357600081556001016200032f565b50805460008255906000526020600020908101906200036591906200032e565b50565b634e487b7160e01b600052604160045260246000fd5b604051601f8201601f191681016001600160401b0381118282101715620003a957620003a962000368565b604052919050565b60006001600160401b03821115620003cd57620003cd62000368565b5060051b60200190565b6000806040808486031215620003ec57600080fd5b8351602080860151919450906001600160401b03808211156200040e57600080fd5b818701915087601f8301126200042357600080fd5b81516200043a6200043482620003b1565b6200037e565b81815260059190911b8301840190848101908a8311156200045a57600080fd5b8585015b838110156200050757805185811115620004785760008081fd5b8601603f81018d136200048b5760008081fd5b878101516200049e6200043482620003b1565b81815260059190911b82018a0190898101908f831115620004bf5760008081fd5b928b01925b82841015620004f65783516001600160a01b0381168114620004e65760008081fd5b8252928a0192908a0190620004c4565b86525050509186019186016200045e565b50809750505050505050509250929050565b634e487b7160e01b600052603260045260246000fd5b6000600182016200055057634e487b7160e01b600052601160045260246000fd5b5060010190565b6113ae80620005676000396000f3fe608060405234801561001057600080fd5b50600436106100ea5760003560e01c806360d8b63d1161008c578063946272d911610066578063946272d914610207578063a39fac121461021a578063bfe313821461022f578063f300cdbc1461025a57600080fd5b806360d8b63d146101a45780637df73e27146101c45780638027b368146101f457600080fd5b80633964e6e2116100c85780633964e6e2146101495780633e6d21fa1461015c5780635f09bf661461016f5780635ff64f6d1461018f57600080fd5b806305a5fc6a146100ef5780630f27f9631461011757806330ccebb514610129575b600080fd5b6101026100fd366004611086565b61026d565b60405190151581526020015b60405180910390f35b6001545b60405190815260200161010e565b61013c6101373660046110bb565b610307565b60405161010e91906110d6565b610102610157366004611162565b6103fc565b61010261016a366004611195565b61052c565b61018261017d3660046111c1565b610628565b60405161010e91906111eb565b6101a261019d3660046111c1565b6106fe565b005b6101b76101b2366004611231565b610a97565b60405161010e919061128e565b6101d76101d23660046110bb565b610b16565b60408051931515845260208401929092529082015260600161010e565b61011b610202366004611231565b610be8565b6101a26102153660046110bb565b610c0e565b610222610da4565b60405161010e91906112a1565b61024261023d366004611303565b610e47565b6040516001600160a01b03909116815260200161010e565b6101026102683660046110bb565b610e92565b6001600160a01b03811660009081526003602052604081206001015460ff1661029857506000610300565b6001600160a01b03821660009081526003602052604090208054859081106102c2576102c2611325565b9060005260206000200183815481106102dd576102dd611325565b90600052602060002090602091828204019190069054906101000a900460ff1690505b9392505050565b6001600160a01b03811660009081526003602052604090206001015460609060ff1661033257600080fd5b6001600160a01b038216600090815260036020908152604080832080548251818502810185019093528083529193909284015b828210156103f1576000848152602090819020830180546040805182850281018501909152818152928301828280156103dd57602002820191906000526020600020906000905b825461010083900a900460ff1615158152602060019283018181049485019490930390920291018084116103ac5790505b505050505081526020019060010190610365565b505050509050919050565b6001600160a01b03811660009081526003602052604081206001015460ff1661042757506000610300565b60005b6000848154811061043d5761043d611325565b60009182526020909120015481101561052157846001600160a01b03166000858154811061046d5761046d611325565b90600052602060002001828154811061048857610488611325565b6000918252602090912001546001600160a01b03160361050f576001600160a01b03831660009081526003602052604090208054859081106104cc576104cc611325565b9060005260206000200181815481106104e7576104e7611325565b90600052602060002090602091828204019190069054906101000a900460ff16915050610300565b806105198161133b565b91505061042a565b506000949350505050565b6001600160a01b03811660009081526003602052604081206001015460ff1661055757506000610622565b60005b6001600160a01b038316600090815260036020526040902080548590811061058457610584611325565b60009182526020909120015481101561061c576001600160a01b03831660009081526003602052604090208054859081106105c1576105c1611325565b9060005260206000200181815481106105dc576105dc611325565b90600052602060002090602091828204019190069054906101000a900460ff1661060a576000915050610622565b806106148161133b565b91505061055a565b50600190505b92915050565b6001600160a01b03821660009081526003602052604090206001015460609060ff1661065357600080fd5b6001600160a01b038316600090815260036020526040902080548390811061067d5761067d611325565b906000526020600020018054806020026020016040519081016040528092919081815260200182805480156106f157602002820191906000526020600020906000905b825461010083900a900460ff1615158152602060019283018181049485019490930390920291018084116106c05790505b5050505050905092915050565b60025460ff16156107565760405162461bcd60e51b815260206004820152601560248201527f5369676e617475726520696e2070726f6772657373000000000000000000000060448201526064015b60405180910390fd5b6002805460ff191660019081179091556001600160a01b0383166000908152600360205260409020015460ff166107905761079082610c0e565b60008061079c33610b16565b925050915060006107ac84610a97565b90506000805b825181101561080857336001600160a01b03168382815181106107d7576107d7611325565b60200260200101516001600160a01b0316036107f65760019150610808565b806108008161133b565b9150506107b2565b50836108565760405162461bcd60e51b815260206004820152601560248201527f4f6e6c79207369676e6572732063616e207369676e0000000000000000000000604482015260640161074d565b806108c95760405162461bcd60e51b815260206004820152602360248201527f4f6e6c79207369676e65727320696e2074686973206c617965722063616e207360448201527f69676e0000000000000000000000000000000000000000000000000000000000606482015260840161074d565b6001600160a01b03861660009081526003602052604090208054869081106108f3576108f3611325565b90600052602060002001838154811061090e5761090e611325565b90600052602060002090602091828204019190069054906101000a900460ff161561097b5760405162461bcd60e51b815260206004820152601760248201527f596f75206861766520616c7265616479207369676e6564000000000000000000604482015260640161074d565b6001600160a01b0386166000908152600360205260409020805460019190879081106109a9576109a9611325565b9060005260206000200184815481106109c4576109c4611325565b90600052602060002090602091828204019190066101000a81548160ff0219169083151502179055507ff4b7ab5b8fc49d6d35d323cae6a96e1441b461f862dfc5aff92e806e2839b5b08686604051610a329291906001600160a01b03929092168252602082015260400190565b60405180910390a1610a4386610e92565b15610a85576040516001600160a01b03871681527f04f56682a1fa3ab932fc941f37a6101b4c13fc1b7765d7b5feeacace9e1252829060200160405180910390a15b50506002805460ff1916905550505050565b606060008281548110610aac57610aac611325565b90600052602060002001805480602002602001604051908101604052809291908181526020018280548015610b0a57602002820191906000526020600020905b81546001600160a01b03168152600190910190602001808311610aec575b50505050509050919050565b60008080805b600154811015610bd45760005b60008281548110610b3c57610b3c611325565b600091825260209091200154811015610bc157856001600160a01b031660008381548110610b6c57610b6c611325565b906000526020600020018281548110610b8757610b87611325565b6000918252602090912001546001600160a01b031603610baf57600194509092509050610be1565b80610bb98161133b565b915050610b29565b5080610bcc8161133b565b915050610b1c565b5060008060009250925092505b9193909250565b6000808281548110610bfc57610bfc611325565b60009182526020909120015492915050565b6001600160a01b03811660009081526003602052604090206001015460ff1615610c355750565b60005467ffffffffffffffff811115610c5057610c50611362565b604051908082528060200260200182016040528015610c8357816020015b6060815260200190600190039081610c6e5790505b506001600160a01b03821660009081526003602090815260409091208251610cb19391929190910190610f12565b5060005b600154811015610d7a5760008181548110610cd257610cd2611325565b60009182526020909120015467ffffffffffffffff811115610cf657610cf6611362565b604051908082528060200260200182016040528015610d1f578160200160208202803683370190505b506001600160a01b0383166000908152600360205260409020805483908110610d4a57610d4a611325565b906000526020600020019080519060200190610d67929190610f6f565b5080610d728161133b565b915050610cb5565b506001600160a01b031660009081526003602052604090206001908101805460ff19169091179055565b60606000805480602002602001604051908101604052809291908181526020016000905b82821015610e3e57600084815260209081902083018054604080518285028101850190915281815292830182828015610e2a57602002820191906000526020600020905b81546001600160a01b03168152600190910190602001808311610e0c575b505050505081526020019060010190610dc8565b50505050905090565b6000808381548110610e5b57610e5b611325565b906000526020600020018281548110610e7657610e76611325565b6000918252602090912001546001600160a01b03169392505050565b6001600160a01b03811660009081526003602052604081206001015460ff16610ebd57506000919050565b60005b6001600160a01b038316600090815260036020526040902054811015610f0957610eea818461052c565b610ef75750600092915050565b80610f018161133b565b915050610ec0565b50600192915050565b828054828255906000526020600020908101928215610f5f579160200282015b82811115610f5f5782518051610f4f918491602090910190610f6f565b5091602001919060010190610f32565b50610f6b929150611010565b5090565b82805482825590600052602060002090601f016020900481019282156110045791602002820160005b83821115610fd557835183826101000a81548160ff0219169083151502179055509260200192600101602081600001049283019260010302610f98565b80156110025782816101000a81549060ff0219169055600101602081600001049283019260010302610fd5565b505b50610f6b92915061102d565b80821115610f6b5760006110248282611042565b50600101611010565b5b80821115610f6b576000815560010161102e565b50805460008255601f016020900490600052602060002090810190611067919061102d565b50565b80356001600160a01b038116811461108157600080fd5b919050565b60008060006060848603121561109b57600080fd5b83359250602084013591506110b26040850161106a565b90509250925092565b6000602082840312156110cd57600080fd5b6103008261106a565b6000602080830181845280855180835260408601915060408160051b87010192508387016000805b8381101561115457888603603f19018552825180518088529088019088880190845b8181101561113e57835115158352928a0192918a0191600101611120565b50909750505093860193918601916001016110fe565b509398975050505050505050565b60008060006060848603121561117757600080fd5b6111808461106a565b9250602084013591506110b26040850161106a565b600080604083850312156111a857600080fd5b823591506111b86020840161106a565b90509250929050565b600080604083850312156111d457600080fd5b6111dd8361106a565b946020939093013593505050565b6020808252825182820181905260009190848201906040850190845b81811015611225578351151583529284019291840191600101611207565b50909695505050505050565b60006020828403121561124357600080fd5b5035919050565b600081518084526020808501945080840160005b838110156112835781516001600160a01b03168752958201959082019060010161125e565b509495945050505050565b602081526000610300602083018461124a565b6000602080830181845280855180835260408601915060408160051b870101925083870160005b828110156112f657603f198886030184526112e485835161124a565b945092850192908501906001016112c8565b5092979650505050505050565b6000806040838503121561131657600080fd5b50508035926020909101359150565b634e487b7160e01b600052603260045260246000fd5b60006001820161135b57634e487b7160e01b600052601160045260246000fd5b5060010190565b634e487b7160e01b600052604160045260246000fdfea26469706673582212205f8b0653ea4443d59e3a1e47326b9b0b3bfbe72544137ae5392768185424b5f664736f6c634300080e0033",
  "immutableReferences": {},
  "source": "// SPDX-License-Identifier: MIT\npragma solidity >=0.4.22 <0.9.0;\n\n/**\n@title DiplomasSignatures\n@author Charles Simon-Meunier\n*/\ncontract DiplomasSignatures {\n    address[][] private _addresses;\n    uint256 private _layers;\n    bool private signatureInProgress = false;\n\n    struct Signature {\n        bool[][] _signed;\n        bool init;\n    }\n\n    mapping(address => Signature) _signatures;\n\n    constructor(uint256 layers, address[][] memory addresses) {\n        _addresses = new address[][](layers);\n        _layers = layers;\n        for (uint256 i = 0; i < layers; i++) {\n            _addresses[i] = new address[](addresses[i].length);\n            for (uint256 j = 0; j < addresses[i].length; j++) {\n                _addresses[i][j] = addresses[i][j];\n            }\n        }\n    }\n\n    function getAddresses() public view returns (address[][] memory) {\n        return _addresses;\n    }\n\n    function getNumberOfLayers() public view returns (uint256) {\n        return _layers;\n    }\n\n    function getAddressesByLayer(uint256 layer)\n        public\n        view\n        returns (address[] memory)\n    {\n        return _addresses[layer];\n    }\n\n    /**\n    @notice Get the status of the signature of a student for a layer and an index\n    @dev This should be the documentation of the function for the developer docs\n    @param layer The layer of the signature\n    @param index The index inside the layer\n    @param wallet The address of the student wallet\n    @return {\n        \"true\": \"if the signature is present\",\n        \"false\": \"if the signature is not present\"\n    }\n    */\n    function getSignedStatus(\n        uint256 layer,\n        uint256 index,\n        address wallet\n    ) public view returns (bool) {\n        if (!_signatures[wallet].init) {\n            return false;\n        }\n        return _signatures[wallet]._signed[layer][index];\n    }\n\n    function getAddressOfSigner(uint256 layer, uint256 index)\n        public\n        view\n        returns (address)\n    {\n        return _addresses[layer][index];\n    }\n\n    function getSignerNumber(uint256 layer) public view returns (uint256) {\n        return _addresses[layer].length;\n    }\n\n    function isSigned(uint256 layer, address wallet)\n        public\n        view\n        returns (bool)\n    {\n        if (!_signatures[wallet].init) {\n            return false;\n        }\n        for (\n            uint256 i = 0;\n            i < _signatures[wallet]._signed[layer].length;\n            i++\n        ) {\n            if (!_signatures[wallet]._signed[layer][i]) {\n                return false;\n            }\n        }\n        return true;\n    }\n\n    function isSigner(address signer)\n        public\n        view\n        returns (\n            bool,\n            uint256,\n            uint256\n        )\n    {\n        for (uint256 i = 0; i < _layers; i++) {\n            for (uint256 j = 0; j < _addresses[i].length; j++) {\n                if (_addresses[i][j] == signer) {\n                    return (true, i, j);\n                }\n            }\n        }\n        return (false, 0, 0);\n    }\n\n    function hasSigned(\n        address signer,\n        uint256 layer,\n        address wallet\n    ) public view returns (bool) {\n        if (!_signatures[wallet].init) {\n            return false;\n        }\n        for (uint256 i = 0; i < _addresses[layer].length; i++) {\n            if (_addresses[layer][i] == signer) {\n                return _signatures[wallet]._signed[layer][i];\n            }\n        }\n        return false;\n    }\n\n    function initSignature(address wallet) public {\n        if (_signatures[wallet].init) {\n            return;\n        }\n        _signatures[wallet]._signed = new bool[][](_addresses.length);\n        for (uint256 i = 0; i < _layers; i++) {\n            _signatures[wallet]._signed[i] = new bool[](_addresses[i].length);\n        }\n        _signatures[wallet].init = true;\n    }\n\n    function sign(address wallet, uint256 layer) public {\n        require(!signatureInProgress, \"Signature in progress\");\n        signatureInProgress = true;\n        if (!_signatures[wallet].init) {\n            initSignature(wallet);\n        }\n        (bool _isSigner, , uint256 index_in_layer) = isSigner(msg.sender);\n        address[] memory addressesInLayer = getAddressesByLayer(layer);\n        bool isInLayer = false;\n        for (uint256 i = 0; i < addressesInLayer.length; i++) {\n            if (addressesInLayer[i] == msg.sender) {\n                isInLayer = true;\n                break;\n            }\n        }\n        require(_isSigner, \"Only signers can sign\");\n        require(isInLayer, \"Only signers in this layer can sign\");\n        require(\n            !_signatures[wallet]._signed[layer][index_in_layer],\n            \"You have already signed\"\n        );\n        _signatures[wallet]._signed[layer][index_in_layer] = true;\n        emit Signed(wallet, layer);\n        if (isCompletelySigned(wallet)) {\n            emit CompletelySigned(wallet);\n        }\n        signatureInProgress = false;\n    }\n\n    function getStatus(address wallet) public view returns (bool[][] memory) {\n        if (!_signatures[wallet].init) {\n            revert();\n        }\n        return _signatures[wallet]._signed;\n    }\n\n    function getLayerStatus(address wallet, uint256 layer)\n        public\n        view\n        returns (bool[] memory)\n    {\n        if (!_signatures[wallet].init) {\n            revert();\n        }\n        return _signatures[wallet]._signed[layer];\n    }\n\n    function isCompletelySigned(address wallet) public view returns (bool) {\n        if (!_signatures[wallet].init) {\n            return false;\n        }\n        for (uint256 i = 0; i < _signatures[wallet]._signed.length; i++) {\n            if (!isSigned(i, wallet)) {\n                return false;\n            }\n        }\n        return true;\n    }\n\n    event Signed(address waller, uint256 layer);\n\n    event CompletelySigned(address wallet);\n}\n",
  "sourcePath": "/Users/draze/Desktop/LaCity/nft-diplomas/smart-contracts/contracts/DiplomasSignatures.sol",
  "compiler": {
    "name": "solc",
    "version": "0.8.14+commit.80d49f37.Emscripten.clang"
  },
  "schemaVersion": "3.4.7",
  "updatedAt": "2022-06-03T19:03:25.548Z",
  "devdoc": {
    "author": "Charles Simon-Meunier",
    "kind": "dev",
    "methods": {
      "getSignedStatus(uint256,uint256,address)": {
        "details": "This should be the documentation of the function for the developer docs",
        "params": {
          "index": "The index inside the layer",
          "layer": "The layer of the signature",
          "wallet": "The address of the student wallet"
        },
        "returns": {
          "_0": "{ \"true\": \"if the signature is present\", \"false\": \"if the signature is not present\" }"
        }
      }
    },
    "title": "DiplomasSignatures",
    "version": 1
  },
  "userdoc": {
    "kind": "user",
    "methods": {
      "getSignedStatus(uint256,uint256,address)": {
        "notice": "Get the status of the signature of a student for a layer and an index"
      }
    },
    "version": 1
  }
}