{
  "contractName": "VerifySignature",
  "abi": [
    {
      "inputs": [
        {
          "internalType": "bytes",
          "name": "sig",
          "type": "bytes"
        }
      ],
      "name": "splitSignature",
      "outputs": [
        {
          "internalType": "uint8",
          "name": "",
          "type": "uint8"
        },
        {
          "internalType": "bytes32",
          "name": "",
          "type": "bytes32"
        },
        {
          "internalType": "bytes32",
          "name": "",
          "type": "bytes32"
        }
      ],
      "stateMutability": "pure",
      "type": "function",
      "constant": true
    },
    {
      "inputs": [
        {
          "internalType": "string",
          "name": "str",
          "type": "string"
        }
      ],
      "name": "getHash",
      "outputs": [
        {
          "internalType": "bytes32",
          "name": "",
          "type": "bytes32"
        }
      ],
      "stateMutability": "pure",
      "type": "function",
      "constant": true
    },
    {
      "inputs": [
        {
          "internalType": "bytes32",
          "name": "_messageHash",
          "type": "bytes32"
        }
      ],
      "name": "getEthSignedHash",
      "outputs": [
        {
          "internalType": "bytes32",
          "name": "",
          "type": "bytes32"
        }
      ],
      "stateMutability": "pure",
      "type": "function",
      "constant": true
    },
    {
      "inputs": [
        {
          "internalType": "bytes32",
          "name": "_ethSignedMessageHash",
          "type": "bytes32"
        },
        {
          "internalType": "bytes",
          "name": "_signature",
          "type": "bytes"
        }
      ],
      "name": "verify",
      "outputs": [
        {
          "internalType": "address",
          "name": "",
          "type": "address"
        }
      ],
      "stateMutability": "pure",
      "type": "function",
      "constant": true
    }
  ],
  "bytecode": "0x608060405234801561001057600080fd5b5061042c806100206000396000f3fe608060405234801561001057600080fd5b506004361061004c5760003560e01c8063258ae582146100515780632f4ea5ea1461008e5780635b6beeb9146100af578063a7bb5803146100c2575b600080fd5b61006461005f3660046102d5565b6100f4565b60405173ffffffffffffffffffffffffffffffffffffffff90911681526020015b60405180910390f35b6100a161009c36600461031c565b610173565b604051908152602001610085565b6100a16100bd366004610335565b6101c7565b6100d56100d0366004610386565b6101da565b6040805160ff9094168452602084019290925290820152606001610085565b600080600080610103856101da565b6040805160008152602081018083528b905260ff8516918101919091526060810183905260808101829052929550909350915060019060a0016020604051602081039080840390855afa15801561015e573d6000803e3d6000fd5b5050604051601f190151979650505050505050565b6040517f19457468657265756d205369676e6564204d6573736167653a0a3332000000006020820152603c8101829052600090605c015b604051602081830303815290604052805190602001209050919050565b6000816040516020016101aa91906103bb565b600080600083516041146101ed57600080fd5b5050506020810151604082015160609092015160001a92909190565b7f4e487b7100000000000000000000000000000000000000000000000000000000600052604160045260246000fd5b600067ffffffffffffffff8084111561025357610253610209565b604051601f8501601f19908116603f0116810190828211818310171561027b5761027b610209565b8160405280935085815286868601111561029457600080fd5b858560208301376000602087830101525050509392505050565b600082601f8301126102bf57600080fd5b6102ce83833560208501610238565b9392505050565b600080604083850312156102e857600080fd5b82359150602083013567ffffffffffffffff81111561030657600080fd5b610312858286016102ae565b9150509250929050565b60006020828403121561032e57600080fd5b5035919050565b60006020828403121561034757600080fd5b813567ffffffffffffffff81111561035e57600080fd5b8201601f8101841361036f57600080fd5b61037e84823560208401610238565b949350505050565b60006020828403121561039857600080fd5b813567ffffffffffffffff8111156103af57600080fd5b61037e848285016102ae565b6000825160005b818110156103dc57602081860181015185830152016103c2565b818111156103eb576000828501525b50919091019291505056fea2646970667358221220270d09ccbd485147ea06c4bba84ae10a54b8745aba718e262b269ac184b26d4864736f6c634300080d0033",
  "immutableReferences": {},
  "source": "// SPDX-License-Identifier: MIT\npragma solidity >=0.4.22 <0.9.0;\n\ncontract VerifySignature {\n    function splitSignature(bytes memory sig)\n        public\n        pure\n        returns (\n            uint8,\n            bytes32,\n            bytes32\n        )\n    {\n        require(sig.length == 65);\n\n        bytes32 r;\n        bytes32 s;\n        uint8 v;\n\n        assembly {\n            // first 32 bytes, after the length prefix\n            r := mload(add(sig, 32))\n            // second 32 bytes\n            s := mload(add(sig, 64))\n            // final byte (first byte of the next 32 bytes)\n            v := byte(0, mload(add(sig, 96)))\n        }\n\n        return (v, r, s);\n    }\n\n    // use this function to get the hash of any string\n    function getHash(string memory str) public pure returns (bytes32) {\n        return keccak256(abi.encodePacked(str));\n    }\n\n    // take the keccak256 hashed message from the getHash function above and input into this function\n    // this function prefixes the hash above with \\x19Ethereum signed message:\\n32 + hash\n    // and produces a new hash signature\n    function getEthSignedHash(bytes32 _messageHash)\n        public\n        pure\n        returns (bytes32)\n    {\n        return\n            keccak256(\n                abi.encodePacked(\n                    \"\\x19Ethereum Signed Message:\\n32\",\n                    _messageHash\n                )\n            );\n    }\n\n    // input the getEthSignedHash results and the signature hash results\n    // the output of this function will be the account number that signed the original message\n    function verify(bytes32 _ethSignedMessageHash, bytes memory _signature)\n        public\n        pure\n        returns (address)\n    {\n        (uint8 v, bytes32 r, bytes32 s) = splitSignature(_signature);\n        return ecrecover(_ethSignedMessageHash, v, r, s);\n    }\n}\n",
  "sourcePath": "/Users/draze/Desktop/LaCity/nft-diplomas/smart-contracts/contracts/VerifySignature.sol",
  "compiler": {
    "name": "solc",
    "version": "0.8.13+commit.abaa5c0e.Emscripten.clang"
  },
  "schemaVersion": "3.4.7",
  "updatedAt": "2022-05-16T20:08:34.061Z",
  "networkType": "ethereum",
  "devdoc": {
    "kind": "dev",
    "methods": {},
    "version": 1
  },
  "userdoc": {
    "kind": "user",
    "methods": {},
    "version": 1
  }
}